{
  "contractName": "EventToken",
  "abi": [
    {
      "constant": true,
      "inputs": [],
      "name": "name",
      "outputs": [
        {
          "name": "",
          "type": "string"
        }
      ],
      "payable": false,
      "stateMutability": "view",
      "type": "function"
    },
    {
      "constant": true,
      "inputs": [],
      "name": "decimals",
      "outputs": [
        {
          "name": "",
          "type": "uint8"
        }
      ],
      "payable": false,
      "stateMutability": "view",
      "type": "function"
    },
    {
      "constant": false,
      "inputs": [
        {
          "name": "spender",
          "type": "address"
        },
        {
          "name": "addedValue",
          "type": "uint256"
        }
      ],
      "name": "increaseAllowance",
      "outputs": [
        {
          "name": "",
          "type": "bool"
        }
      ],
      "payable": false,
      "stateMutability": "nonpayable",
      "type": "function"
    },
    {
      "constant": false,
      "inputs": [
        {
          "name": "to",
          "type": "address"
        },
        {
          "name": "value",
          "type": "uint256"
        }
      ],
      "name": "mint",
      "outputs": [
        {
          "name": "",
          "type": "bool"
        }
      ],
      "payable": false,
      "stateMutability": "nonpayable",
      "type": "function"
    },
    {
      "constant": false,
      "inputs": [
        {
          "name": "value",
          "type": "uint256"
        }
      ],
      "name": "burn",
      "outputs": [],
      "payable": false,
      "stateMutability": "nonpayable",
      "type": "function"
    },
    {
      "constant": false,
      "inputs": [
        {
          "name": "from",
          "type": "address"
        },
        {
          "name": "value",
          "type": "uint256"
        }
      ],
      "name": "burnFrom",
      "outputs": [],
      "payable": false,
      "stateMutability": "nonpayable",
      "type": "function"
    },
    {
      "constant": true,
      "inputs": [],
      "name": "symbol",
      "outputs": [
        {
          "name": "",
          "type": "string"
        }
      ],
      "payable": false,
      "stateMutability": "view",
      "type": "function"
    },
    {
      "constant": false,
      "inputs": [
        {
          "name": "account",
          "type": "address"
        }
      ],
      "name": "addMinter",
      "outputs": [],
      "payable": false,
      "stateMutability": "nonpayable",
      "type": "function"
    },
    {
      "constant": false,
      "inputs": [],
      "name": "renounceMinter",
      "outputs": [],
      "payable": false,
      "stateMutability": "nonpayable",
      "type": "function"
    },
    {
      "constant": false,
      "inputs": [
        {
          "name": "spender",
          "type": "address"
        },
        {
          "name": "subtractedValue",
          "type": "uint256"
        }
      ],
      "name": "decreaseAllowance",
      "outputs": [
        {
          "name": "",
          "type": "bool"
        }
      ],
      "payable": false,
      "stateMutability": "nonpayable",
      "type": "function"
    },
    {
      "constant": true,
      "inputs": [
        {
          "name": "account",
          "type": "address"
        }
      ],
      "name": "isMinter",
      "outputs": [
        {
          "name": "",
          "type": "bool"
        }
      ],
      "payable": false,
      "stateMutability": "view",
      "type": "function"
    },
    {
      "inputs": [
        {
          "name": "_maxSupply",
          "type": "uint256"
        },
        {
          "name": "_name",
          "type": "string"
        },
        {
          "name": "_symbol",
          "type": "string"
        },
        {
          "name": "_expireAfter",
          "type": "uint256"
        },
        {
          "name": "_ticketPrice",
          "type": "uint256"
        }
      ],
      "payable": false,
      "stateMutability": "nonpayable",
      "type": "constructor"
    },
    {
      "payable": true,
      "stateMutability": "payable",
      "type": "fallback"
    },
    {
      "anonymous": false,
      "inputs": [
        {
          "indexed": true,
          "name": "account",
          "type": "address"
        }
      ],
      "name": "MinterAdded",
      "type": "event"
    },
    {
      "anonymous": false,
      "inputs": [
        {
          "indexed": true,
          "name": "account",
          "type": "address"
        }
      ],
      "name": "MinterRemoved",
      "type": "event"
    },
    {
      "anonymous": false,
      "inputs": [
        {
          "indexed": true,
          "name": "from",
          "type": "address"
        },
        {
          "indexed": true,
          "name": "to",
          "type": "address"
        },
        {
          "indexed": false,
          "name": "value",
          "type": "uint256"
        }
      ],
      "name": "Transfer",
      "type": "event"
    },
    {
      "anonymous": false,
      "inputs": [
        {
          "indexed": true,
          "name": "owner",
          "type": "address"
        },
        {
          "indexed": true,
          "name": "spender",
          "type": "address"
        },
        {
          "indexed": false,
          "name": "value",
          "type": "uint256"
        }
      ],
      "name": "Approval",
      "type": "event"
    },
    {
      "constant": true,
      "inputs": [],
      "name": "getTickePrice",
      "outputs": [
        {
          "name": "",
          "type": "uint256"
        }
      ],
      "payable": false,
      "stateMutability": "view",
      "type": "function"
    },
    {
      "constant": false,
      "inputs": [],
      "name": "withdraw",
      "outputs": [],
      "payable": false,
      "stateMutability": "nonpayable",
      "type": "function"
    },
    {
      "constant": false,
      "inputs": [
        {
          "name": "_newPrice",
          "type": "uint256"
        }
      ],
      "name": "updatePrice",
      "outputs": [],
      "payable": false,
      "stateMutability": "nonpayable",
      "type": "function"
    },
    {
      "constant": true,
      "inputs": [],
      "name": "totalSupply",
      "outputs": [
        {
          "name": "",
          "type": "uint256"
        }
      ],
      "payable": false,
      "stateMutability": "view",
      "type": "function"
    },
    {
      "constant": true,
      "inputs": [
        {
          "name": "owner",
          "type": "address"
        }
      ],
      "name": "balanceOf",
      "outputs": [
        {
          "name": "",
          "type": "uint256"
        }
      ],
      "payable": false,
      "stateMutability": "view",
      "type": "function"
    },
    {
      "constant": true,
      "inputs": [
        {
          "name": "owner",
          "type": "address"
        },
        {
          "name": "spender",
          "type": "address"
        }
      ],
      "name": "allowance",
      "outputs": [
        {
          "name": "",
          "type": "uint256"
        }
      ],
      "payable": false,
      "stateMutability": "view",
      "type": "function"
    },
    {
      "constant": false,
      "inputs": [
        {
          "name": "to",
          "type": "address"
        },
        {
          "name": "value",
          "type": "uint256"
        }
      ],
      "name": "transfer",
      "outputs": [
        {
          "name": "",
          "type": "bool"
        }
      ],
      "payable": false,
      "stateMutability": "nonpayable",
      "type": "function"
    },
    {
      "constant": false,
      "inputs": [
        {
          "name": "spender",
          "type": "address"
        },
        {
          "name": "value",
          "type": "uint256"
        }
      ],
      "name": "approve",
      "outputs": [
        {
          "name": "",
          "type": "bool"
        }
      ],
      "payable": false,
      "stateMutability": "nonpayable",
      "type": "function"
    },
    {
      "constant": false,
      "inputs": [
        {
          "name": "from",
          "type": "address"
        },
        {
          "name": "to",
          "type": "address"
        },
        {
          "name": "value",
          "type": "uint256"
        }
      ],
      "name": "transferFrom",
      "outputs": [
        {
          "name": "",
          "type": "bool"
        }
      ],
      "payable": false,
      "stateMutability": "nonpayable",
      "type": "function"
    },
    {
      "constant": true,
      "inputs": [],
      "name": "isTokenValid",
      "outputs": [
        {
          "name": "",
          "type": "bool"
        }
      ],
      "payable": false,
      "stateMutability": "view",
      "type": "function"
    }
  ],
  "bytecode": "0x60806040523480156200001157600080fd5b50604051620013053803806200130583398101604090815281516020808401519284015160608501516080860151948601805194969095920193909285918591600091620000669160039190860190620001b8565b5081516200007c906004906020850190620001b8565b506005805460ff191660ff9290921691909117905550620000a8905033640100000000620000d3810204565b60099490945560089390935550504201600755600b8054600160a060020a031916331790556200025d565b620000ee60068264010000000062000fd26200012582021704565b604051600160a060020a038216907f6ae172837ea30b801fbfcdd4108aa1d5bf8ff775444fd70256b44e6bf3dfc3f690600090a250565b600160a060020a03811615156200013b57600080fd5b62000150828264010000000062000180810204565b156200015b57600080fd5b600160a060020a0316600090815260209190915260409020805460ff19166001179055565b6000600160a060020a03821615156200019857600080fd5b50600160a060020a03166000908152602091909152604090205460ff1690565b828054600181600116156101000203166002900490600052602060002090601f016020900481019282601f10620001fb57805160ff19168380011785556200022b565b828001600101855582156200022b579182015b828111156200022b5782518255916020019190600101906200020e565b50620002399291506200023d565b5090565b6200025a91905b8082111562000239576000815560010162000244565b90565b611098806200026d6000396000f30060806040526004361061011c5763ffffffff7c010000000000000000000000000000000000000000000000000000000060003504166306fdde03811461032b578063095ea7b3146103b557806318160ddd146103ed57806323b872dd14610414578063313ce5671461043e57806339509351146104695780633ccfd60b1461048d57806340c10f19146104a457806342966c68146104c85780634f4e95c5146104e057806370a08231146104f557806379cc6790146105165780638d6cc56d1461053a57806395d89b4114610552578063983b2d56146105675780639865027514610588578063a001df421461059d578063a457c2d7146105b2578063a9059cbb146105d6578063aa271e1a146105fa578063dd62ed3e1461061b575b6007546000904210610178576040805160e560020a62461bcd02815260206004820152601c60248201527f546869732073616c6520686173206265656e20636f6d706c6574656400000000604482015290519081900360640190fd5b600954600a54106101d3576040805160e560020a62461bcd02815260206004820152600860248201527f536f6c64206f7574000000000000000000000000000000000000000000000000604482015290519081900360640190fd5b600854348115156101e057fe5b04905060095481101515610264576040805160e560020a62461bcd02815260206004820152603260248201527f596f752063616e277420627579206d6f7265207469636b657473207468616e2060448201527f74686520656d6974746564206e756d6265720000000000000000000000000000606482015290519081900360840190fd5b600081116102e2576040805160e560020a62461bcd02815260206004820152602860248201527f596f7520646964206e6f742070617920656e6f75676820746f2062757920616e60448201527f79207469636b6574000000000000000000000000000000000000000000000000606482015290519081900360840190fd5b60085460405133918302340380156108fc02916000818181858888f19350505050158015610314573d6000803e3d6000fd5b5061031f3382610642565b50600a80549091019055005b34801561033757600080fd5b5061034061066c565b6040805160208082528351818301528351919283929083019185019080838360005b8381101561037a578181015183820152602001610362565b50505050905090810190601f1680156103a75780820380516001836020036101000a031916815260200191505b509250505060405180910390f35b3480156103c157600080fd5b506103d9600160a060020a0360043516602435610703565b604080519115158252519081900360200190f35b3480156103f957600080fd5b50610402610728565b60408051918252519081900360200190f35b34801561042057600080fd5b506103d9600160a060020a036004358116906024351660443561074b565b34801561044a57600080fd5b50610453610774565b6040805160ff9092168252519081900360200190f35b34801561047557600080fd5b506103d9600160a060020a036004351660243561077d565b34801561049957600080fd5b506104a261082d565b005b3480156104b057600080fd5b506103d9600160a060020a0360043516602435610642565b3480156104d457600080fd5b506104a2600435610862565b3480156104ec57600080fd5b506103d961086f565b34801561050157600080fd5b50610402600160a060020a0360043516610889565b34801561052257600080fd5b506104a2600160a060020a03600435166024356108ae565b34801561054657600080fd5b506104a26004356108bc565b34801561055e57600080fd5b50610340610949565b34801561057357600080fd5b506104a2600160a060020a03600435166109aa565b34801561059457600080fd5b506104a26109c7565b3480156105a957600080fd5b506104026109d2565b3480156105be57600080fd5b506103d9600160a060020a03600435166024356109d8565b3480156105e257600080fd5b506103d9600160a060020a0360043516602435610a23565b34801561060657600080fd5b506103d9600160a060020a0360043516610a41565b34801561062757600080fd5b50610402600160a060020a0360043581169060243516610a54565b600061064d33610a41565b151561065857600080fd5b6106628383610a72565b5060015b92915050565b60038054604080516020601f60026000196101006001881615020190951694909404938401819004810282018101909252828152606093909290918301828280156106f85780601f106106cd576101008083540402835291602001916106f8565b820191906000526020600020905b8154815290600101906020018083116106db57829003601f168201915b505050505090505b90565b600060075442111561071757506000610666565b6107218383610b1c565b9050610666565b600060075442111561073c57506000610700565b610744610b9a565b9050610700565b600060075442111561075f5750600061076d565b61076a848484610ba0565b90505b9392505050565b60055460ff1690565b6000600160a060020a038316151561079457600080fd5b336000908152600160209081526040808320600160a060020a03871684529091529020546107c8908363ffffffff610c3d16565b336000818152600160209081526040808320600160a060020a0389168085529083529281902085905580519485525191937f8c5be1e5ebec7d5bd14f71427d1e84f3dd0314c0f7b2291e5b200ac8c7c3b925929081900390910190a350600192915050565b600b54600160a060020a0316331461084457600080fd5b6040513390303180156108fc02916000818181858888f15050505050565b61086c3382610c4f565b50565b600754600090421061088357506000610700565b50600190565b600060075442111561089d575060006108a9565b6108a682610d1d565b90505b919050565b6108b88282610d38565b5050565b600b54600160a060020a03163314610944576040805160e560020a62461bcd02815260206004820152602c60248201527f4f6e6c7920636f6e7472616374206f776e65722063616e20757064617465207460448201527f69636b6574732070726963650000000000000000000000000000000000000000606482015290519081900360840190fd5b600855565b60048054604080516020601f60026000196101006001881615020190951694909404938401819004810282018101909252828152606093909290918301828280156106f85780601f106106cd576101008083540402835291602001916106f8565b6109b333610a41565b15156109be57600080fd5b61086c81610dca565b6109d033610e12565b565b60085490565b6000600160a060020a03831615156109ef57600080fd5b336000908152600160209081526040808320600160a060020a03871684529091529020546107c8908363ffffffff610e5a16565b6000600754421115610a3757506000610666565b6107218383610e71565b60006108a660068363ffffffff610e7e16565b6000600754421115610a6857506000610666565b6107218383610eb5565b600160a060020a0382161515610a8757600080fd5b600254610a9a908263ffffffff610c3d16565b600255600160a060020a038216600090815260208190526040902054610ac6908263ffffffff610c3d16565b600160a060020a0383166000818152602081815260408083209490945583518581529351929391927fddf252ad1be2c89b69c2b068fc378daa952ba7f163c4a11628f55a4df523b3ef9281900390910190a35050565b6000600160a060020a0383161515610b3357600080fd5b336000818152600160209081526040808320600160a060020a03881680855290835292819020869055805186815290519293927f8c5be1e5ebec7d5bd14f71427d1e84f3dd0314c0f7b2291e5b200ac8c7c3b925929181900390910190a350600192915050565b60025490565b600160a060020a0383166000908152600160209081526040808320338452909152812054821115610bd057600080fd5b600160a060020a0384166000908152600160209081526040808320338452909152902054610c04908363ffffffff610e5a16565b600160a060020a0385166000908152600160209081526040808320338452909152902055610c33848484610ee0565b5060019392505050565b60008282018381101561076d57600080fd5b600160a060020a0382161515610c6457600080fd5b600160a060020a038216600090815260208190526040902054811115610c8957600080fd5b600254610c9c908263ffffffff610e5a16565b600255600160a060020a038216600090815260208190526040902054610cc8908263ffffffff610e5a16565b600160a060020a038316600081815260208181526040808320949094558351858152935191937fddf252ad1be2c89b69c2b068fc378daa952ba7f163c4a11628f55a4df523b3ef929081900390910190a35050565b600160a060020a031660009081526020819052604090205490565b600160a060020a0382166000908152600160209081526040808320338452909152902054811115610d6857600080fd5b600160a060020a0382166000908152600160209081526040808320338452909152902054610d9c908263ffffffff610e5a16565b600160a060020a03831660009081526001602090815260408083203384529091529020556108b88282610c4f565b610ddb60068263ffffffff610fd216565b604051600160a060020a038216907f6ae172837ea30b801fbfcdd4108aa1d5bf8ff775444fd70256b44e6bf3dfc3f690600090a250565b610e2360068263ffffffff61102016565b604051600160a060020a038216907fe94479a9f7e1952cc78f2d6baab678adc1b772d936c6583def489e524cb6669290600090a250565b60008083831115610e6a57600080fd5b5050900390565b6000610662338484610ee0565b6000600160a060020a0382161515610e9557600080fd5b50600160a060020a03166000908152602091909152604090205460ff1690565b600160a060020a03918216600090815260016020908152604080832093909416825291909152205490565b600160a060020a038316600090815260208190526040902054811115610f0557600080fd5b600160a060020a0382161515610f1a57600080fd5b600160a060020a038316600090815260208190526040902054610f43908263ffffffff610e5a16565b600160a060020a038085166000908152602081905260408082209390935590841681522054610f78908263ffffffff610c3d16565b600160a060020a038084166000818152602081815260409182902094909455805185815290519193928716927fddf252ad1be2c89b69c2b068fc378daa952ba7f163c4a11628f55a4df523b3ef92918290030190a3505050565b600160a060020a0381161515610fe757600080fd5b610ff18282610e7e565b15610ffb57600080fd5b600160a060020a0316600090815260209190915260409020805460ff19166001179055565b600160a060020a038116151561103557600080fd5b61103f8282610e7e565b151561104a57600080fd5b600160a060020a0316600090815260209190915260409020805460ff191690555600a165627a7a7230582011e81a6ab1204fc1a92054b1b1f6bb7efadd4fd1ea4ae473127c60e8f14250a00029",
  "source": "pragma solidity ^0.4.2;\n  \nimport \"../node_modules/openzeppelin-solidity/contracts/token/ERC20/ERC20.sol\";  \nimport \"../node_modules/openzeppelin-solidity/contracts/token/ERC20/ERC20Detailed.sol\";\nimport \"../node_modules/openzeppelin-solidity/contracts/token/ERC20/ERC20Mintable.sol\";\nimport \"../node_modules/openzeppelin-solidity/contracts/token/ERC20/ERC20Burnable.sol\";\nimport \"../node_modules/openzeppelin-solidity/contracts/token/ERC20/IERC20.sol\";\n\n  \n/**  \n* @title EventToken is a basic ERC20 Token  \n*/  \ncontract EventToken is ERC20, ERC20Detailed, ERC20Mintable, ERC20Burnable {\n\n    uint256 ticketExpiryDateTimestamp;\n\n    uint256 ticketPrice;\n    uint256 maxTicketsSupply;\n    uint256 emitedTickets;\n\n    address owner;\n\n    constructor(\n        uint256 _maxSupply,\n        string memory _name,\n        string memory _symbol,\n        uint256 _expireAfter,\n        uint256 _ticketPrice\n        )  \n            ERC20Detailed(_name, _symbol, 0)\n            ERC20Mintable()\n            ERC20Burnable()\n            ERC20()\n            public\n    {\n        maxTicketsSupply = _maxSupply;\n        ticketPrice = _ticketPrice;\n        ticketExpiryDateTimestamp = now + _expireAfter;\n        owner = msg.sender;\n    }\n\n    function() public payable {\n        require(now < ticketExpiryDateTimestamp, \"This sale has been completed\");\n        require(emitedTickets < maxTicketsSupply, \"Sold out\");\n        uint _ticketsAmount = msg.value / ticketPrice;\n        require(_ticketsAmount < maxTicketsSupply, \"You can't buy more tickets than the emitted number\");\n        require(_ticketsAmount > 0, \"You did not pay enough to buy any ticket\");\n        msg.sender.transfer(msg.value - _ticketsAmount * ticketPrice);\n        mint(msg.sender, _ticketsAmount);\n        emitedTickets += _ticketsAmount;\n    }\n    \n    function getTickePrice() public view returns(uint) {\n        return ticketPrice;\n    }\n\n    function withdraw() public {\n        require(msg.sender == owner);\n        msg.sender.send(this.balance);\n    }\n    \n    function updatePrice(uint _newPrice) public {\n        require(msg.sender == owner, \"Only contract owner can update tickets price\");\n        ticketPrice = _newPrice;\n    }\n\n\n    function totalSupply() public view returns(uint256) {\n        if(now > ticketExpiryDateTimestamp) {\n            return 0;\n        } else {\n            return ERC20.totalSupply();\n        }\n    }\n\n    function balanceOf(address owner) public view returns (uint256) {\n        if(now > ticketExpiryDateTimestamp) {\n            return 0;\n        } else {\n            return ERC20.balanceOf(owner);\n        }\n    }\n\n    function allowance(address owner, address spender) public view returns(uint256) {\n        if(now > ticketExpiryDateTimestamp) {\n            return 0;\n        } else {\n            return ERC20.allowance(owner, spender);\n        }\n    }\n\n    function transfer(address to, uint256 value) public returns(bool) {\n        if(now > ticketExpiryDateTimestamp) {\n            return false;\n        } else {\n            return ERC20.transfer(to, value);\n        }\n    }\n\n    function approve(address spender, uint256 value) public returns (bool) {\n        if(now > ticketExpiryDateTimestamp) {\n            return false;\n        } else {\n            return ERC20.approve(spender, value);\n        }\n    }\n\n    function transferFrom(address from, address to, uint256 value) public returns(bool) {\n        if(now > ticketExpiryDateTimestamp) {\n            return false;\n        } else {\n            return ERC20.transferFrom(from, to, value);\n        }\n    }\n\n    function isTokenValid() public view returns(bool) {\n        if(now >= ticketExpiryDateTimestamp) {\n            return false;\n        }\n        return true;\n    }\n}",
  "sourcePath": "/Users/marcello/Projects/EthTicketing/contracts/EventToken.sol",
  "compiler": {
    "name": "solc",
    "version": "0.4.25+commit.59dbf8f1.Emscripten.clang"
  },
  "schemaVersion": "3.0.0",
  "updatedAt": "2019-01-14T17:31:57.010Z",
  "devdoc": {
    "methods": {
      "burn(uint256)": {
        "details": "Burns a specific amount of tokens.",
        "params": {
          "value": "The amount of token to be burned."
        }
      },
      "burnFrom(address,uint256)": {
        "details": "Burns a specific amount of tokens from the target address and decrements allowance",
        "params": {
          "from": "address The address which you want to send tokens from",
          "value": "uint256 The amount of token to be burned"
        }
      },
      "decimals()": {
        "return": "the number of decimals of the token."
      },
      "decreaseAllowance(address,uint256)": {
        "details": "Decrease the amount of tokens that an owner allowed to a spender. approve should be called when allowed_[_spender] == 0. To decrement allowed value is better to use this function to avoid 2 calls (and wait until the first transaction is mined) From MonolithDAO Token.sol",
        "params": {
          "spender": "The address which will spend the funds.",
          "subtractedValue": "The amount of tokens to decrease the allowance by."
        }
      },
      "increaseAllowance(address,uint256)": {
        "details": "Increase the amount of tokens that an owner allowed to a spender. approve should be called when allowed_[_spender] == 0. To increment allowed value is better to use this function to avoid 2 calls (and wait until the first transaction is mined) From MonolithDAO Token.sol",
        "params": {
          "addedValue": "The amount of tokens to increase the allowance by.",
          "spender": "The address which will spend the funds."
        }
      },
      "mint(address,uint256)": {
        "details": "Function to mint tokens",
        "params": {
          "to": "The address that will receive the minted tokens.",
          "value": "The amount of tokens to mint."
        },
        "return": "A boolean that indicates if the operation was successful."
      },
      "name()": {
        "return": "the name of the token."
      },
      "symbol()": {
        "return": "the symbol of the token."
      }
    },
    "title": "EventToken is a basic ERC20 Token  "
  },
  "userdoc": {
    "methods": {}
  }
}