{
  "contractName": "EventToken",
  "abi": [
    {
      "constant": true,
      "inputs": [],
      "name": "name",
      "outputs": [
        {
          "name": "",
          "type": "string"
        }
      ],
      "payable": false,
      "stateMutability": "view",
      "type": "function"
    },
    {
      "constant": true,
      "inputs": [],
      "name": "decimals",
      "outputs": [
        {
          "name": "",
          "type": "uint8"
        }
      ],
      "payable": false,
      "stateMutability": "view",
      "type": "function"
    },
    {
      "constant": false,
      "inputs": [
        {
          "name": "spender",
          "type": "address"
        },
        {
          "name": "addedValue",
          "type": "uint256"
        }
      ],
      "name": "increaseAllowance",
      "outputs": [
        {
          "name": "",
          "type": "bool"
        }
      ],
      "payable": false,
      "stateMutability": "nonpayable",
      "type": "function"
    },
    {
      "constant": false,
      "inputs": [
        {
          "name": "to",
          "type": "address"
        },
        {
          "name": "value",
          "type": "uint256"
        }
      ],
      "name": "mint",
      "outputs": [
        {
          "name": "",
          "type": "bool"
        }
      ],
      "payable": false,
      "stateMutability": "nonpayable",
      "type": "function"
    },
    {
      "constant": false,
      "inputs": [
        {
          "name": "value",
          "type": "uint256"
        }
      ],
      "name": "burn",
      "outputs": [],
      "payable": false,
      "stateMutability": "nonpayable",
      "type": "function"
    },
    {
      "constant": false,
      "inputs": [
        {
          "name": "from",
          "type": "address"
        },
        {
          "name": "value",
          "type": "uint256"
        }
      ],
      "name": "burnFrom",
      "outputs": [],
      "payable": false,
      "stateMutability": "nonpayable",
      "type": "function"
    },
    {
      "constant": true,
      "inputs": [],
      "name": "symbol",
      "outputs": [
        {
          "name": "",
          "type": "string"
        }
      ],
      "payable": false,
      "stateMutability": "view",
      "type": "function"
    },
    {
      "constant": false,
      "inputs": [
        {
          "name": "account",
          "type": "address"
        }
      ],
      "name": "addMinter",
      "outputs": [],
      "payable": false,
      "stateMutability": "nonpayable",
      "type": "function"
    },
    {
      "constant": false,
      "inputs": [],
      "name": "renounceMinter",
      "outputs": [],
      "payable": false,
      "stateMutability": "nonpayable",
      "type": "function"
    },
    {
      "constant": false,
      "inputs": [
        {
          "name": "spender",
          "type": "address"
        },
        {
          "name": "subtractedValue",
          "type": "uint256"
        }
      ],
      "name": "decreaseAllowance",
      "outputs": [
        {
          "name": "",
          "type": "bool"
        }
      ],
      "payable": false,
      "stateMutability": "nonpayable",
      "type": "function"
    },
    {
      "constant": true,
      "inputs": [
        {
          "name": "account",
          "type": "address"
        }
      ],
      "name": "isMinter",
      "outputs": [
        {
          "name": "",
          "type": "bool"
        }
      ],
      "payable": false,
      "stateMutability": "view",
      "type": "function"
    },
    {
      "inputs": [
        {
          "name": "_maxSupply",
          "type": "uint256"
        },
        {
          "name": "_name",
          "type": "string"
        },
        {
          "name": "_symbol",
          "type": "string"
        },
        {
          "name": "_expireAfter",
          "type": "uint256"
        },
        {
          "name": "_ticketPrice",
          "type": "uint256"
        }
      ],
      "payable": false,
      "stateMutability": "nonpayable",
      "type": "constructor"
    },
    {
      "payable": true,
      "stateMutability": "payable",
      "type": "fallback"
    },
    {
      "anonymous": false,
      "inputs": [
        {
          "indexed": true,
          "name": "account",
          "type": "address"
        }
      ],
      "name": "MinterAdded",
      "type": "event"
    },
    {
      "anonymous": false,
      "inputs": [
        {
          "indexed": true,
          "name": "account",
          "type": "address"
        }
      ],
      "name": "MinterRemoved",
      "type": "event"
    },
    {
      "anonymous": false,
      "inputs": [
        {
          "indexed": true,
          "name": "from",
          "type": "address"
        },
        {
          "indexed": true,
          "name": "to",
          "type": "address"
        },
        {
          "indexed": false,
          "name": "value",
          "type": "uint256"
        }
      ],
      "name": "Transfer",
      "type": "event"
    },
    {
      "anonymous": false,
      "inputs": [
        {
          "indexed": true,
          "name": "owner",
          "type": "address"
        },
        {
          "indexed": true,
          "name": "spender",
          "type": "address"
        },
        {
          "indexed": false,
          "name": "value",
          "type": "uint256"
        }
      ],
      "name": "Approval",
      "type": "event"
    },
    {
      "constant": true,
      "inputs": [],
      "name": "getTickePrice",
      "outputs": [
        {
          "name": "",
          "type": "uint256"
        }
      ],
      "payable": false,
      "stateMutability": "view",
      "type": "function"
    },
    {
      "constant": false,
      "inputs": [],
      "name": "withdraw",
      "outputs": [],
      "payable": false,
      "stateMutability": "nonpayable",
      "type": "function"
    },
    {
      "constant": false,
      "inputs": [
        {
          "name": "_newPrice",
          "type": "uint256"
        }
      ],
      "name": "updatePrice",
      "outputs": [],
      "payable": false,
      "stateMutability": "nonpayable",
      "type": "function"
    },
    {
      "constant": true,
      "inputs": [],
      "name": "totalSupply",
      "outputs": [
        {
          "name": "",
          "type": "uint256"
        }
      ],
      "payable": false,
      "stateMutability": "view",
      "type": "function"
    },
    {
      "constant": true,
      "inputs": [
        {
          "name": "owner",
          "type": "address"
        }
      ],
      "name": "balanceOf",
      "outputs": [
        {
          "name": "",
          "type": "uint256"
        }
      ],
      "payable": false,
      "stateMutability": "view",
      "type": "function"
    },
    {
      "constant": true,
      "inputs": [
        {
          "name": "owner",
          "type": "address"
        },
        {
          "name": "spender",
          "type": "address"
        }
      ],
      "name": "allowance",
      "outputs": [
        {
          "name": "",
          "type": "uint256"
        }
      ],
      "payable": false,
      "stateMutability": "view",
      "type": "function"
    },
    {
      "constant": false,
      "inputs": [
        {
          "name": "to",
          "type": "address"
        },
        {
          "name": "value",
          "type": "uint256"
        }
      ],
      "name": "transfer",
      "outputs": [
        {
          "name": "",
          "type": "bool"
        }
      ],
      "payable": false,
      "stateMutability": "nonpayable",
      "type": "function"
    },
    {
      "constant": false,
      "inputs": [
        {
          "name": "spender",
          "type": "address"
        },
        {
          "name": "value",
          "type": "uint256"
        }
      ],
      "name": "approve",
      "outputs": [
        {
          "name": "",
          "type": "bool"
        }
      ],
      "payable": false,
      "stateMutability": "nonpayable",
      "type": "function"
    },
    {
      "constant": false,
      "inputs": [
        {
          "name": "from",
          "type": "address"
        },
        {
          "name": "to",
          "type": "address"
        },
        {
          "name": "value",
          "type": "uint256"
        }
      ],
      "name": "transferFrom",
      "outputs": [
        {
          "name": "",
          "type": "bool"
        }
      ],
      "payable": false,
      "stateMutability": "nonpayable",
      "type": "function"
    },
    {
      "constant": true,
      "inputs": [],
      "name": "isTokenValid",
      "outputs": [
        {
          "name": "",
          "type": "bool"
        }
      ],
      "payable": false,
      "stateMutability": "view",
      "type": "function"
    }
  ],
  "bytecode": "0x60806040523480156200001157600080fd5b506040516200149d3803806200149d833981018060405260a08110156200003757600080fd5b8151602083018051919392830192916401000000008111156200005957600080fd5b820160208101848111156200006d57600080fd5b81516401000000008111828201871017156200008857600080fd5b50509291906020018051640100000000811115620000a557600080fd5b82016020810184811115620000b957600080fd5b8151640100000000811182820187101715620000d457600080fd5b505060208083015160409093015186519295509293508591859160009162000103916003919086019062000255565b5081516200011990600490602085019062000255565b506005805460ff191660ff92909216919091179055506200014590503364010000000062000170810204565b60099490945560089390935550504201600755600b8054600160a060020a03191633179055620002fa565b6200018b600682640100000000620010ad620001c282021704565b604051600160a060020a038216907f6ae172837ea30b801fbfcdd4108aa1d5bf8ff775444fd70256b44e6bf3dfc3f690600090a250565b600160a060020a0381161515620001d857600080fd5b620001ed82826401000000006200021d810204565b15620001f857600080fd5b600160a060020a0316600090815260209190915260409020805460ff19166001179055565b6000600160a060020a03821615156200023557600080fd5b50600160a060020a03166000908152602091909152604090205460ff1690565b828054600181600116156101000203166002900490600052602060002090601f016020900481019282601f106200029857805160ff1916838001178555620002c8565b82800160010185558215620002c8579182015b82811115620002c8578251825591602001919060010190620002ab565b50620002d6929150620002da565b5090565b620002f791905b80821115620002d65760008155600101620002e1565b90565b611193806200030a6000396000f3fe60806040526004361061011c5763ffffffff7c010000000000000000000000000000000000000000000000000000000060003504166306fdde03811461032a578063095ea7b3146103b457806318160ddd1461040157806323b872dd14610428578063313ce5671461046b57806339509351146104965780633ccfd60b146104cf57806340c10f19146104e657806342966c681461051f5780634f4e95c51461054957806370a082311461055e57806379cc6790146105915780638d6cc56d146105ca57806395d89b41146105f4578063983b2d5614610609578063986502751461063c578063a001df4214610651578063a457c2d714610666578063a9059cbb1461069f578063aa271e1a146106d8578063dd62ed3e1461070b575b6007544210610175576040805160e560020a62461bcd02815260206004820152601c60248201527f546869732073616c6520686173206265656e20636f6d706c6574656400000000604482015290519081900360640190fd5b600954600a54106101d0576040805160e560020a62461bcd02815260206004820152600860248201527f536f6c64206f7574000000000000000000000000000000000000000000000000604482015290519081900360640190fd5b6000600854348115156101df57fe5b04905060095481101515610263576040805160e560020a62461bcd02815260206004820152603260248201527f596f752063616e277420627579206d6f7265207469636b657473207468616e2060448201527f74686520656d6974746564206e756d6265720000000000000000000000000000606482015290519081900360840190fd5b600081116102e1576040805160e560020a62461bcd02815260206004820152602860248201527f596f7520646964206e6f742070617920656e6f75676820746f2062757920616e60448201527f79207469636b6574000000000000000000000000000000000000000000000000606482015290519081900360840190fd5b60085460405133918302340380156108fc02916000818181858888f19350505050158015610313573d6000803e3d6000fd5b5061031e3382610746565b50600a80549091019055005b34801561033657600080fd5b5061033f610770565b6040805160208082528351818301528351919283929083019185019080838360005b83811015610379578181015183820152602001610361565b50505050905090810190601f1680156103a65780820380516001836020036101000a031916815260200191505b509250505060405180910390f35b3480156103c057600080fd5b506103ed600480360360408110156103d757600080fd5b50600160a060020a038135169060200135610807565b604080519115158252519081900360200190f35b34801561040d57600080fd5b5061041661082c565b60408051918252519081900360200190f35b34801561043457600080fd5b506103ed6004803603606081101561044b57600080fd5b50600160a060020a0381358116916020810135909116906040013561084f565b34801561047757600080fd5b50610480610878565b6040805160ff9092168252519081900360200190f35b3480156104a257600080fd5b506103ed600480360360408110156104b957600080fd5b50600160a060020a038135169060200135610881565b3480156104db57600080fd5b506104e461091f565b005b3480156104f257600080fd5b506103ed6004803603604081101561050957600080fd5b50600160a060020a038135169060200135610746565b34801561052b57600080fd5b506104e46004803603602081101561054257600080fd5b5035610966565b34801561055557600080fd5b506103ed610970565b34801561056a57600080fd5b506104166004803603602081101561058157600080fd5b5035600160a060020a031661098a565b34801561059d57600080fd5b506104e4600480360360408110156105b457600080fd5b50600160a060020a0381351690602001356109af565b3480156105d657600080fd5b506104e4600480360360208110156105ed57600080fd5b50356109bd565b34801561060057600080fd5b5061033f610a4a565b34801561061557600080fd5b506104e46004803603602081101561062c57600080fd5b5035600160a060020a0316610aab565b34801561064857600080fd5b506104e4610ac8565b34801561065d57600080fd5b50610416610ad3565b34801561067257600080fd5b506103ed6004803603604081101561068957600080fd5b50600160a060020a038135169060200135610ad9565b3480156106ab57600080fd5b506103ed600480360360408110156106c257600080fd5b50600160a060020a038135169060200135610b24565b3480156106e457600080fd5b506103ed600480360360208110156106fb57600080fd5b5035600160a060020a0316610b42565b34801561071757600080fd5b506104166004803603604081101561072e57600080fd5b50600160a060020a0381358116916020013516610b55565b600061075133610b42565b151561075c57600080fd5b6107668383610b73565b5060015b92915050565b60038054604080516020601f60026000196101006001881615020190951694909404938401819004810282018101909252828152606093909290918301828280156107fc5780601f106107d1576101008083540402835291602001916107fc565b820191906000526020600020905b8154815290600101906020018083116107df57829003601f168201915b505050505090505b90565b600060075442111561081b5750600061076a565b6108258383610c1d565b905061076a565b600060075442111561084057506000610804565b610848610c89565b9050610804565b600060075442111561086357506000610871565b61086e848484610c8f565b90505b9392505050565b60055460ff1690565b6000600160a060020a038316151561089857600080fd5b336000908152600160209081526040808320600160a060020a03871684529091529020546108cc908363ffffffff610d4616565b336000818152600160209081526040808320600160a060020a038916808552908352928190208590558051948552519193600080516020611148833981519152929081900390910190a350600192915050565b600b54600160a060020a0316331461093657600080fd5b6040513390303180156108fc02916000818181858888f19350505050158015610963573d6000803e3d6000fd5b50565b6109633382610d58565b600754600090421061098457506000610804565b50600190565b600060075442111561099e575060006109aa565b6109a782610e01565b90505b919050565b6109b98282610e1c565b5050565b600b54600160a060020a03163314610a45576040805160e560020a62461bcd02815260206004820152602c60248201527f4f6e6c7920636f6e7472616374206f776e65722063616e20757064617465207460448201527f69636b6574732070726963650000000000000000000000000000000000000000606482015290519081900360840190fd5b600855565b60048054604080516020601f60026000196101006001881615020190951694909404938401819004810282018101909252828152606093909290918301828280156107fc5780601f106107d1576101008083540402835291602001916107fc565b610ab433610b42565b1515610abf57600080fd5b61096381610ecc565b610ad133610f14565b565b60085490565b6000600160a060020a0383161515610af057600080fd5b336000908152600160209081526040808320600160a060020a03871684529091529020546108cc908363ffffffff610f5c16565b6000600754421115610b385750600061076a565b6108258383610f71565b60006109a760068363ffffffff610f7e16565b6000600754421115610b695750600061076a565b6108258383610fb5565b600160a060020a0382161515610b8857600080fd5b600254610b9b908263ffffffff610d4616565b600255600160a060020a038216600090815260208190526040902054610bc7908263ffffffff610d4616565b600160a060020a0383166000818152602081815260408083209490945583518581529351929391927fddf252ad1be2c89b69c2b068fc378daa952ba7f163c4a11628f55a4df523b3ef9281900390910190a35050565b6000600160a060020a0383161515610c3457600080fd5b336000818152600160209081526040808320600160a060020a0388168085529083529281902086905580518681529051929392600080516020611148833981519152929181900390910190a350600192915050565b60025490565b600160a060020a0383166000908152600160209081526040808320338452909152812054610cc3908363ffffffff610f5c16565b600160a060020a0385166000908152600160209081526040808320338452909152902055610cf2848484610fe0565b600160a060020a038416600081815260016020908152604080832033808552908352928190205481519081529051929392600080516020611148833981519152929181900390910190a35060019392505050565b60008282018381101561087157600080fd5b600160a060020a0382161515610d6d57600080fd5b600254610d80908263ffffffff610f5c16565b600255600160a060020a038216600090815260208190526040902054610dac908263ffffffff610f5c16565b600160a060020a038316600081815260208181526040808320949094558351858152935191937fddf252ad1be2c89b69c2b068fc378daa952ba7f163c4a11628f55a4df523b3ef929081900390910190a35050565b600160a060020a031660009081526020819052604090205490565b600160a060020a0382166000908152600160209081526040808320338452909152902054610e50908263ffffffff610f5c16565b600160a060020a0383166000908152600160209081526040808320338452909152902055610e7e8282610d58565b600160a060020a038216600081815260016020908152604080832033808552908352928190205481519081529051929392600080516020611148833981519152929181900390910190a35050565b610edd60068263ffffffff6110ad16565b604051600160a060020a038216907f6ae172837ea30b801fbfcdd4108aa1d5bf8ff775444fd70256b44e6bf3dfc3f690600090a250565b610f2560068263ffffffff6110fb16565b604051600160a060020a038216907fe94479a9f7e1952cc78f2d6baab678adc1b772d936c6583def489e524cb6669290600090a250565b600082821115610f6b57600080fd5b50900390565b6000610766338484610fe0565b6000600160a060020a0382161515610f9557600080fd5b50600160a060020a03166000908152602091909152604090205460ff1690565b600160a060020a03918216600090815260016020908152604080832093909416825291909152205490565b600160a060020a0382161515610ff557600080fd5b600160a060020a03831660009081526020819052604090205461101e908263ffffffff610f5c16565b600160a060020a038085166000908152602081905260408082209390935590841681522054611053908263ffffffff610d4616565b600160a060020a038084166000818152602081815260409182902094909455805185815290519193928716927fddf252ad1be2c89b69c2b068fc378daa952ba7f163c4a11628f55a4df523b3ef92918290030190a3505050565b600160a060020a03811615156110c257600080fd5b6110cc8282610f7e565b156110d657600080fd5b600160a060020a0316600090815260209190915260409020805460ff19166001179055565b600160a060020a038116151561111057600080fd5b61111a8282610f7e565b151561112557600080fd5b600160a060020a0316600090815260209190915260409020805460ff1916905556fe8c5be1e5ebec7d5bd14f71427d1e84f3dd0314c0f7b2291e5b200ac8c7c3b925a165627a7a72305820454fd62d259da53c1e80fee575bd1bfee1b91514ee2fb479476eb6a30e226e070029",
  "source": "pragma solidity 0.5.0;\n  \nimport \"../node_modules/openzeppelin-solidity/contracts/token/ERC20/ERC20.sol\";  \nimport \"../node_modules/openzeppelin-solidity/contracts/token/ERC20/ERC20Detailed.sol\";\nimport \"../node_modules/openzeppelin-solidity/contracts/token/ERC20/ERC20Mintable.sol\";\nimport \"../node_modules/openzeppelin-solidity/contracts/token/ERC20/ERC20Burnable.sol\";\nimport \"../node_modules/openzeppelin-solidity/contracts/token/ERC20/IERC20.sol\";\n\n  \n/**  \n* @title EventToken is a basic ERC20 Token  \n*/  \ncontract EventToken is ERC20, ERC20Detailed, ERC20Mintable, ERC20Burnable {\n\n    uint256 ticketExpiryDateTimestamp;\n\n    uint256 ticketPrice;\n    uint256 maxTicketsSupply;\n    uint256 emitedTickets;\n\n    address contractOwner;\n\n    constructor(\n        uint256 _maxSupply,\n        string memory _name,\n        string memory _symbol,\n        uint256 _expireAfter,\n        uint256 _ticketPrice\n        )  \n            ERC20Detailed(_name, _symbol, 0)\n            ERC20Mintable()\n            ERC20Burnable()\n            ERC20()\n            public\n    {\n        maxTicketsSupply = _maxSupply;\n        ticketPrice = _ticketPrice;\n        ticketExpiryDateTimestamp = now + _expireAfter;\n        contractOwner = msg.sender;\n    }\n\n    function() external payable {\n        require(now < ticketExpiryDateTimestamp, \"This sale has been completed\");\n        require(emitedTickets < maxTicketsSupply, \"Sold out\");\n        uint _ticketsAmount = msg.value / ticketPrice;\n        require(_ticketsAmount < maxTicketsSupply, \"You can't buy more tickets than the emitted number\");\n        require(_ticketsAmount > 0, \"You did not pay enough to buy any ticket\");\n        msg.sender.transfer(msg.value - _ticketsAmount * ticketPrice);\n        mint(msg.sender, _ticketsAmount);\n        emitedTickets += _ticketsAmount;\n    }\n    \n    function getTickePrice() public view returns(uint) {\n        return ticketPrice;\n    }\n\n    function withdraw() public {\n        require(msg.sender == contractOwner);\n        msg.sender.transfer(address(this).balance);\n    }\n    \n    function updatePrice(uint _newPrice) public {\n        require(msg.sender == contractOwner, \"Only contract owner can update tickets price\");\n        ticketPrice = _newPrice;\n    }\n\n\n    function totalSupply() public view returns(uint256) {\n        if(now > ticketExpiryDateTimestamp) {\n            return 0;\n        } else {\n            return ERC20.totalSupply();\n        }\n    }\n\n    function balanceOf(address owner) public view returns (uint256) {\n        if(now > ticketExpiryDateTimestamp) {\n            return 0;\n        } else {\n            return ERC20.balanceOf(owner);\n        }\n    }\n\n    function allowance(address owner, address spender) public view returns(uint256) {\n        if(now > ticketExpiryDateTimestamp) {\n            return 0;\n        } else {\n            return ERC20.allowance(owner, spender);\n        }\n    }\n\n    function transfer(address to, uint256 value) public returns(bool) {\n        if(now > ticketExpiryDateTimestamp) {\n            return false;\n        } else {\n            return ERC20.transfer(to, value);\n        }\n    }\n\n    function approve(address spender, uint256 value) public returns (bool) {\n        if(now > ticketExpiryDateTimestamp) {\n            return false;\n        } else {\n            return ERC20.approve(spender, value);\n        }\n    }\n\n    function transferFrom(address from, address to, uint256 value) public returns(bool) {\n        if(now > ticketExpiryDateTimestamp) {\n            return false;\n        } else {\n            return ERC20.transferFrom(from, to, value);\n        }\n    }\n\n    function isTokenValid() public view returns(bool) {\n        if(now >= ticketExpiryDateTimestamp) {\n            return false;\n        }\n        return true;\n    }\n}",
  "sourcePath": "/Users/marcello/Projects/Sandboxing/EthTicketing/contracts/EventToken.sol",
  "compiler": {
    "name": "solc",
    "version": "0.5.0+commit.1d4f565a.Emscripten.clang"
  },
  "schemaVersion": "3.0.0",
  "updatedAt": "2019-01-29T20:14:38.899Z",
  "devdoc": {
    "methods": {
      "burn(uint256)": {
        "details": "Burns a specific amount of tokens.",
        "params": {
          "value": "The amount of token to be burned."
        }
      },
      "burnFrom(address,uint256)": {
        "details": "Burns a specific amount of tokens from the target address and decrements allowance",
        "params": {
          "from": "address The address which you want to send tokens from",
          "value": "uint256 The amount of token to be burned"
        }
      },
      "decimals()": {
        "return": "the number of decimals of the token."
      },
      "decreaseAllowance(address,uint256)": {
        "details": "Decrease the amount of tokens that an owner allowed to a spender. approve should be called when allowed_[_spender] == 0. To decrement allowed value is better to use this function to avoid 2 calls (and wait until the first transaction is mined) From MonolithDAO Token.sol Emits an Approval event.",
        "params": {
          "spender": "The address which will spend the funds.",
          "subtractedValue": "The amount of tokens to decrease the allowance by."
        }
      },
      "increaseAllowance(address,uint256)": {
        "details": "Increase the amount of tokens that an owner allowed to a spender. approve should be called when allowed_[_spender] == 0. To increment allowed value is better to use this function to avoid 2 calls (and wait until the first transaction is mined) From MonolithDAO Token.sol Emits an Approval event.",
        "params": {
          "addedValue": "The amount of tokens to increase the allowance by.",
          "spender": "The address which will spend the funds."
        }
      },
      "mint(address,uint256)": {
        "details": "Function to mint tokens",
        "params": {
          "to": "The address that will receive the minted tokens.",
          "value": "The amount of tokens to mint."
        },
        "return": "A boolean that indicates if the operation was successful."
      },
      "name()": {
        "return": "the name of the token."
      },
      "symbol()": {
        "return": "the symbol of the token."
      }
    },
    "title": "EventToken is a basic ERC20 Token  "
  },
  "userdoc": {
    "methods": {}
  }
}